{
  "_format": "hh-sol-artifact-1",
  "contractName": "PollGenie",
  "sourceName": "contracts/PollGenie.sol",
  "abi": [
    {
      "inputs": [],
      "stateMutability": "nonpayable",
      "type": "constructor"
    },
    {
      "inputs": [
        {
          "internalType": "uint256",
          "name": "pollId",
          "type": "uint256"
        },
        {
          "internalType": "address",
          "name": "_address",
          "type": "address"
        }
      ],
      "name": "addToWhitelist",
      "outputs": [],
      "stateMutability": "nonpayable",
      "type": "function"
    },
    {
      "inputs": [
        {
          "internalType": "uint256",
          "name": "pollId",
          "type": "uint256"
        }
      ],
      "name": "closePoll",
      "outputs": [],
      "stateMutability": "nonpayable",
      "type": "function"
    },
    {
      "inputs": [
        {
          "internalType": "string",
          "name": "_title",
          "type": "string"
        },
        {
          "internalType": "string",
          "name": "_description",
          "type": "string"
        },
        {
          "internalType": "string[]",
          "name": "_optionTexts",
          "type": "string[]"
        }
      ],
      "name": "createPoll",
      "outputs": [],
      "stateMutability": "nonpayable",
      "type": "function"
    },
    {
      "inputs": [],
      "name": "getAllPollIds",
      "outputs": [
        {
          "internalType": "uint256[]",
          "name": "",
          "type": "uint256[]"
        }
      ],
      "stateMutability": "view",
      "type": "function"
    },
    {
      "inputs": [],
      "name": "getAllPolls",
      "outputs": [
        {
          "components": [
            {
              "internalType": "uint256",
              "name": "id",
              "type": "uint256"
            },
            {
              "internalType": "string",
              "name": "title",
              "type": "string"
            },
            {
              "internalType": "string",
              "name": "description",
              "type": "string"
            },
            {
              "components": [
                {
                  "internalType": "string",
                  "name": "text",
                  "type": "string"
                },
                {
                  "internalType": "bytes32",
                  "name": "id",
                  "type": "bytes32"
                }
              ],
              "internalType": "struct PollGenie.PollOption[]",
              "name": "options",
              "type": "tuple[]"
            },
            {
              "internalType": "uint256[]",
              "name": "voteCounts",
              "type": "uint256[]"
            },
            {
              "internalType": "bool",
              "name": "isOpen",
              "type": "bool"
            }
          ],
          "internalType": "struct PollGenie.PollView[]",
          "name": "",
          "type": "tuple[]"
        }
      ],
      "stateMutability": "view",
      "type": "function"
    },
    {
      "inputs": [
        {
          "internalType": "uint256",
          "name": "pollId",
          "type": "uint256"
        }
      ],
      "name": "getDescription",
      "outputs": [
        {
          "internalType": "string",
          "name": "",
          "type": "string"
        }
      ],
      "stateMutability": "view",
      "type": "function"
    },
    {
      "inputs": [
        {
          "internalType": "uint256",
          "name": "pollId",
          "type": "uint256"
        },
        {
          "internalType": "bytes32",
          "name": "optionId",
          "type": "bytes32"
        }
      ],
      "name": "getOptionVoters",
      "outputs": [
        {
          "internalType": "address[]",
          "name": "",
          "type": "address[]"
        }
      ],
      "stateMutability": "view",
      "type": "function"
    },
    {
      "inputs": [
        {
          "internalType": "uint256",
          "name": "pollId",
          "type": "uint256"
        }
      ],
      "name": "getOptions",
      "outputs": [
        {
          "components": [
            {
              "internalType": "string",
              "name": "text",
              "type": "string"
            },
            {
              "internalType": "bytes32",
              "name": "id",
              "type": "bytes32"
            }
          ],
          "internalType": "struct PollGenie.PollOption[]",
          "name": "",
          "type": "tuple[]"
        }
      ],
      "stateMutability": "view",
      "type": "function"
    },
    {
      "inputs": [
        {
          "internalType": "uint256",
          "name": "pollId",
          "type": "uint256"
        }
      ],
      "name": "getTitle",
      "outputs": [
        {
          "internalType": "string",
          "name": "",
          "type": "string"
        }
      ],
      "stateMutability": "view",
      "type": "function"
    },
    {
      "inputs": [
        {
          "internalType": "uint256",
          "name": "pollId",
          "type": "uint256"
        },
        {
          "internalType": "address",
          "name": "_voter",
          "type": "address"
        }
      ],
      "name": "getVoterChoice",
      "outputs": [
        {
          "internalType": "bytes32",
          "name": "",
          "type": "bytes32"
        }
      ],
      "stateMutability": "view",
      "type": "function"
    },
    {
      "inputs": [
        {
          "internalType": "uint256",
          "name": "pollId",
          "type": "uint256"
        },
        {
          "internalType": "bytes32",
          "name": "optionId",
          "type": "bytes32"
        }
      ],
      "name": "getVotes",
      "outputs": [
        {
          "internalType": "uint256",
          "name": "",
          "type": "uint256"
        }
      ],
      "stateMutability": "view",
      "type": "function"
    },
    {
      "inputs": [
        {
          "internalType": "uint256",
          "name": "pollId",
          "type": "uint256"
        }
      ],
      "name": "isPollOpen",
      "outputs": [
        {
          "internalType": "bool",
          "name": "",
          "type": "bool"
        }
      ],
      "stateMutability": "view",
      "type": "function"
    },
    {
      "inputs": [],
      "name": "owner",
      "outputs": [
        {
          "internalType": "address",
          "name": "",
          "type": "address"
        }
      ],
      "stateMutability": "view",
      "type": "function"
    },
    {
      "inputs": [],
      "name": "pollCount",
      "outputs": [
        {
          "internalType": "uint256",
          "name": "",
          "type": "uint256"
        }
      ],
      "stateMutability": "view",
      "type": "function"
    },
    {
      "inputs": [
        {
          "internalType": "uint256",
          "name": "pollId",
          "type": "uint256"
        },
        {
          "internalType": "address",
          "name": "_address",
          "type": "address"
        }
      ],
      "name": "removeFromWhitelist",
      "outputs": [],
      "stateMutability": "nonpayable",
      "type": "function"
    },
    {
      "inputs": [
        {
          "internalType": "uint256",
          "name": "pollId",
          "type": "uint256"
        },
        {
          "internalType": "bytes32",
          "name": "optionId",
          "type": "bytes32"
        }
      ],
      "name": "vote",
      "outputs": [],
      "stateMutability": "nonpayable",
      "type": "function"
    }
  ],
  "bytecode": "0x608060405234801561001057600080fd5b50336000806101000a81548173ffffffffffffffffffffffffffffffffffffffff021916908373ffffffffffffffffffffffffffffffffffffffff160217905550612ad0806100606000396000f3fe608060405234801561001057600080fd5b50600436106101005760003560e01c80638da5cb5b11610097578063aaeb7e3511610066578063aaeb7e35146102d3578063cfba7a0914610303578063ee0ca5171461031f578063fea3e6131461033d57610100565b80638da5cb5b1461024b5780639207891d14610269578063929a79b1146102875780639534e637146102b757610100565b806368bb8bb6116100d357806368bb8bb61461019f5780638915b3fb146101bb578063894c9b31146101eb5780638c61f3ac1461021b57610100565b80630eac27f4146101055780632d7854611461013557806332b633fa146101515780634925ec551461016f575b600080fd5b61011f600480360381019061011a91906118fe565b610359565b60405161012c9190611957565b60405180910390f35b61014f600480360381019061014a91906118fe565b610546565b005b61015961068a565b6040516101669190611d49565b60405180910390f35b61018960048036038101906101849190611d6b565b610a5f565b6040516101969190611de2565b60405180910390f35b6101b960048036038101906101b49190611e30565b610b4d565b005b6101d560048036038101906101d09190611d6b565b610e81565b6040516101e29190611ef6565b60405180910390f35b61020560048036038101906102009190611d6b565b610fd8565b6040516102129190611f27565b60405180910390f35b61023560048036038101906102309190611e30565b61104b565b6040516102429190612000565b60405180910390f35b610253611147565b6040516102609190612031565b60405180910390f35b61027161116b565b60405161027e919061205b565b60405180910390f35b6102a1600480360381019061029c9190611d6b565b611171565b6040516102ae9190611de2565b60405180910390f35b6102d160048036038101906102cc9190611d6b565b61125f565b005b6102ed60048036038101906102e89190611e30565b611365565b6040516102fa919061205b565b60405180910390f35b61031d60048036038101906103189190612291565b6113e0565b005b6103276115ca565b60405161033491906123a7565b60405180910390f35b610357600480360381019061035291906118fe565b61165d565b005b60008260015481106103a0576040517f08c379a000000000000000000000000000000000000000000000000000000000815260040161039790612415565b60405180910390fd5b600060026000868152602001908152602001600020905060005b81600201805490508110156105365760008260030160008460020184815481106103e7576103e6612435565b5b906000526020600020906002020160010154815260200190815260200160002080548060200260200160405190810160405280929190818152602001828054801561048757602002820191906000526020600020905b8160009054906101000a900473ffffffffffffffffffffffffffffffffffffffff1673ffffffffffffffffffffffffffffffffffffffff168152602001906001019080831161043d575b5050505050905060005b8151811015610527578673ffffffffffffffffffffffffffffffffffffffff168282815181106104c4576104c3612435565b5b602002602001015173ffffffffffffffffffffffffffffffffffffffff160361051a578360020183815481106104fd576104fc612435565b5b90600052602060002090600202016001015495505050505061053f565b8080600101915050610491565b505080806001019150506103ba565b506000801b9250505b5092915050565b60008054906101000a900473ffffffffffffffffffffffffffffffffffffffff1673ffffffffffffffffffffffffffffffffffffffff163373ffffffffffffffffffffffffffffffffffffffff16146105d4576040517f08c379a00000000000000000000000000000000000000000000000000000000081526004016105cb906124d6565b60405180910390fd5b816001548110610619576040517f08c379a000000000000000000000000000000000000000000000000000000000815260040161061090612415565b60405180910390fd5b60016002600085815260200190815260200160002060050160008473ffffffffffffffffffffffffffffffffffffffff1673ffffffffffffffffffffffffffffffffffffffff16815260200190815260200160002060006101000a81548160ff021916908315150217905550505050565b6060600060015467ffffffffffffffff8111156106aa576106a9612080565b5b6040519080825280602002602001820160405280156106e357816020015b6106d061181e565b8152602001906001900390816106c85790505b50905060005b600154811015610a575760006002600083815260200190815260200160002090506000816002018054905067ffffffffffffffff81111561072d5761072c612080565b5b60405190808252806020026020018201604052801561075b5781602001602082028036833780820191505090505b50905060005b82600201805490508110156107dc5782600301600084600201838154811061078c5761078b612435565b5b9060005260206000209060020201600101548152602001908152602001600020805490508282815181106107c3576107c2612435565b5b6020026020010181815250508080600101915050610761565b506040518060c001604052808481526020018360000180546107fd90612525565b80601f016020809104026020016040519081016040528092919081815260200182805461082990612525565b80156108765780601f1061084b57610100808354040283529160200191610876565b820191906000526020600020905b81548152906001019060200180831161085957829003601f168201915b5050505050815260200183600101805461088f90612525565b80601f01602080910402602001604051908101604052809291908181526020018280546108bb90612525565b80156109085780601f106108dd57610100808354040283529160200191610908565b820191906000526020600020905b8154815290600101906020018083116108eb57829003601f168201915b5050505050815260200183600201805480602002602001604051908101604052809291908181526020016000905b82821015610a04578382906000526020600020906002020160405180604001604052908160008201805461096990612525565b80601f016020809104026020016040519081016040528092919081815260200182805461099590612525565b80156109e25780601f106109b7576101008083540402835291602001916109e2565b820191906000526020600020905b8154815290600101906020018083116109c557829003601f168201915b5050505050815260200160018201548152505081526020019060010190610936565b5050505081526020018281526020018360060160009054906101000a900460ff161515815250848481518110610a3d57610a3c612435565b5b6020026020010181905250505080806001019150506106e9565b508091505090565b6060816001548110610aa6576040517f08c379a0000000000000000000000000000000000000000000000000000000008152600401610a9d90612415565b60405180910390fd5b600260008481526020019081526020016000206001018054610ac790612525565b80601f0160208091040260200160405190810160405280929190818152602001828054610af390612525565b8015610b405780601f10610b1557610100808354040283529160200191610b40565b820191906000526020600020905b815481529060010190602001808311610b2357829003601f168201915b5050505050915050919050565b816002600082815260200190815260200160002060050160003373ffffffffffffffffffffffffffffffffffffffff1673ffffffffffffffffffffffffffffffffffffffff16815260200190815260200160002060009054906101000a900460ff16610bee576040517f08c379a0000000000000000000000000000000000000000000000000000000008152600401610be5906125a2565b60405180910390fd5b826002600082815260200190815260200160002060060160009054906101000a900460ff16610c52576040517f08c379a0000000000000000000000000000000000000000000000000000000008152600401610c499061260e565b60405180910390fd5b836001548110610c97576040517f08c379a0000000000000000000000000000000000000000000000000000000008152600401610c8e90612415565b60405180910390fd5b60006002600087815260200190815260200160002090508060040160003373ffffffffffffffffffffffffffffffffffffffff1673ffffffffffffffffffffffffffffffffffffffff16815260200190815260200160002060009054906101000a900460ff1615610d3d576040517f08c379a0000000000000000000000000000000000000000000000000000000008152600401610d349061267a565b60405180910390fd5b6000816003016000878152602001908152602001600020805490501180610d6a5750610d6986866117a1565b5b610da9576040517f08c379a0000000000000000000000000000000000000000000000000000000008152600401610da0906126e6565b60405180910390fd5b806003016000868152602001908152602001600020339080600181540180825580915050600190039060005260206000200160009091909190916101000a81548173ffffffffffffffffffffffffffffffffffffffff021916908373ffffffffffffffffffffffffffffffffffffffff16021790555060018160040160003373ffffffffffffffffffffffffffffffffffffffff1673ffffffffffffffffffffffffffffffffffffffff16815260200190815260200160002060006101000a81548160ff021916908315150217905550505050505050565b6060816001548110610ec8576040517f08c379a0000000000000000000000000000000000000000000000000000000008152600401610ebf90612415565b60405180910390fd5b60026000848152602001908152602001600020600201805480602002602001604051908101604052809291908181526020016000905b82821015610fcc5783829060005260206000209060020201604051806040016040529081600082018054610f3190612525565b80601f0160208091040260200160405190810160405280929190818152602001828054610f5d90612525565b8015610faa5780601f10610f7f57610100808354040283529160200191610faa565b820191906000526020600020905b815481529060010190602001808311610f8d57829003601f168201915b5050505050815260200160018201548152505081526020019060010190610efe565b50505050915050919050565b600081600154811061101f576040517f08c379a000000000000000000000000000000000000000000000000000000000815260040161101690612415565b60405180910390fd5b6002600084815260200190815260200160002060060160009054906101000a900460ff16915050919050565b6060826001548110611092576040517f08c379a000000000000000000000000000000000000000000000000000000000815260040161108990612415565b60405180910390fd5b60026000858152602001908152602001600020600301600084815260200190815260200160002080548060200260200160405190810160405280929190818152602001828054801561113957602002820191906000526020600020905b8160009054906101000a900473ffffffffffffffffffffffffffffffffffffffff1673ffffffffffffffffffffffffffffffffffffffff16815260200190600101908083116110ef575b505050505091505092915050565b60008054906101000a900473ffffffffffffffffffffffffffffffffffffffff1681565b60015481565b60608160015481106111b8576040517f08c379a00000000000000000000000000000000000000000000000000000000081526004016111af90612415565b60405180910390fd5b6002600084815260200190815260200160002060000180546111d990612525565b80601f016020809104026020016040519081016040528092919081815260200182805461120590612525565b80156112525780601f1061122757610100808354040283529160200191611252565b820191906000526020600020905b81548152906001019060200180831161123557829003601f168201915b5050505050915050919050565b60008054906101000a900473ffffffffffffffffffffffffffffffffffffffff1673ffffffffffffffffffffffffffffffffffffffff163373ffffffffffffffffffffffffffffffffffffffff16146112ed576040517f08c379a00000000000000000000000000000000000000000000000000000000081526004016112e4906124d6565b60405180910390fd5b806001548110611332576040517f08c379a000000000000000000000000000000000000000000000000000000000815260040161132990612415565b60405180910390fd5b60006002600084815260200190815260200160002060060160006101000a81548160ff0219169083151502179055505050565b60008260015481106113ac576040517f08c379a00000000000000000000000000000000000000000000000000000000081526004016113a390612415565b60405180910390fd5b6002600085815260200190815260200160002060030160008481526020019081526020016000208054905091505092915050565b60008054906101000a900473ffffffffffffffffffffffffffffffffffffffff1673ffffffffffffffffffffffffffffffffffffffff163373ffffffffffffffffffffffffffffffffffffffff161461146e576040517f08c379a0000000000000000000000000000000000000000000000000000000008152600401611465906124d6565b60405180910390fd5b600060026000600154815260200190815260200160002090508381600001908161149891906128b2565b50828160010190816114aa91906128b2565b5060018160060160006101000a81548160ff02191690831515021790555060005b82518110156115ab57600085858584815181106114eb576114ea612435565b5b60200260200101518460405160200161150794939291906129e1565b60405160208183030381529060405280519060200120905082600201604051806040016040528086858151811061154157611540612435565b5b60200260200101518152602001838152509080600181540180825580915050600190039060005260206000209060020201600090919091909150600082015181600001908161159091906128b2565b506020820151816001015550505080806001019150506114cb565b50600160008154809291906115bf90612a52565b919050555050505050565b6060600060015467ffffffffffffffff8111156115ea576115e9612080565b5b6040519080825280602002602001820160405280156116185781602001602082028036833780820191505090505b50905060005b600154811015611655578082828151811061163c5761163b612435565b5b602002602001018181525050808060010191505061161e565b508091505090565b60008054906101000a900473ffffffffffffffffffffffffffffffffffffffff1673ffffffffffffffffffffffffffffffffffffffff163373ffffffffffffffffffffffffffffffffffffffff16146116eb576040517f08c379a00000000000000000000000000000000000000000000000000000000081526004016116e2906124d6565b60405180910390fd5b816001548110611730576040517f08c379a000000000000000000000000000000000000000000000000000000000815260040161172790612415565b60405180910390fd5b60006002600085815260200190815260200160002060050160008473ffffffffffffffffffffffffffffffffffffffff1673ffffffffffffffffffffffffffffffffffffffff16815260200190815260200160002060006101000a81548160ff021916908315150217905550505050565b60008060026000858152602001908152602001600020905060005b816002018054905081101561181157838260020182815481106117e2576117e1612435565b5b9060005260206000209060020201600101540361180457600192505050611818565b80806001019150506117bc565b5060009150505b92915050565b6040518060c0016040528060008152602001606081526020016060815260200160608152602001606081526020016000151581525090565b6000604051905090565b600080fd5b600080fd5b6000819050919050565b61187d8161186a565b811461188857600080fd5b50565b60008135905061189a81611874565b92915050565b600073ffffffffffffffffffffffffffffffffffffffff82169050919050565b60006118cb826118a0565b9050919050565b6118db816118c0565b81146118e657600080fd5b50565b6000813590506118f8816118d2565b92915050565b6000806040838503121561191557611914611860565b5b60006119238582860161188b565b9250506020611934858286016118e9565b9150509250929050565b6000819050919050565b6119518161193e565b82525050565b600060208201905061196c6000830184611948565b92915050565b600081519050919050565b600082825260208201905092915050565b6000819050602082019050919050565b6119a78161186a565b82525050565b600081519050919050565b600082825260208201905092915050565b60005b838110156119e75780820151818401526020810190506119cc565b60008484015250505050565b6000601f19601f8301169050919050565b6000611a0f826119ad565b611a1981856119b8565b9350611a298185602086016119c9565b611a32816119f3565b840191505092915050565b600081519050919050565b600082825260208201905092915050565b6000819050602082019050919050565b611a728161193e565b82525050565b60006040830160008301518482036000860152611a958282611a04565b9150506020830151611aaa6020860182611a69565b508091505092915050565b6000611ac18383611a78565b905092915050565b6000602082019050919050565b6000611ae182611a3d565b611aeb8185611a48565b935083602082028501611afd85611a59565b8060005b85811015611b395784840389528151611b1a8582611ab5565b9450611b2583611ac9565b925060208a01995050600181019050611b01565b50829750879550505050505092915050565b600081519050919050565b600082825260208201905092915050565b6000819050602082019050919050565b6000611b83838361199e565b60208301905092915050565b6000602082019050919050565b6000611ba782611b4b565b611bb18185611b56565b9350611bbc83611b67565b8060005b83811015611bed578151611bd48882611b77565b9750611bdf83611b8f565b925050600181019050611bc0565b5085935050505092915050565b60008115159050919050565b611c0f81611bfa565b82525050565b600060c083016000830151611c2d600086018261199e565b5060208301518482036020860152611c458282611a04565b91505060408301518482036040860152611c5f8282611a04565b91505060608301518482036060860152611c798282611ad6565b91505060808301518482036080860152611c938282611b9c565b91505060a0830151611ca860a0860182611c06565b508091505092915050565b6000611cbf8383611c15565b905092915050565b6000602082019050919050565b6000611cdf82611972565b611ce9818561197d565b935083602082028501611cfb8561198e565b8060005b85811015611d375784840389528151611d188582611cb3565b9450611d2383611cc7565b925060208a01995050600181019050611cff565b50829750879550505050505092915050565b60006020820190508181036000830152611d638184611cd4565b905092915050565b600060208284031215611d8157611d80611860565b5b6000611d8f8482850161188b565b91505092915050565b600082825260208201905092915050565b6000611db4826119ad565b611dbe8185611d98565b9350611dce8185602086016119c9565b611dd7816119f3565b840191505092915050565b60006020820190508181036000830152611dfc8184611da9565b905092915050565b611e0d8161193e565b8114611e1857600080fd5b50565b600081359050611e2a81611e04565b92915050565b60008060408385031215611e4757611e46611860565b5b6000611e558582860161188b565b9250506020611e6685828601611e1b565b9150509250929050565b600082825260208201905092915050565b6000611e8c82611a3d565b611e968185611e70565b935083602082028501611ea885611a59565b8060005b85811015611ee45784840389528151611ec58582611ab5565b9450611ed083611ac9565b925060208a01995050600181019050611eac565b50829750879550505050505092915050565b60006020820190508181036000830152611f108184611e81565b905092915050565b611f2181611bfa565b82525050565b6000602082019050611f3c6000830184611f18565b92915050565b600081519050919050565b600082825260208201905092915050565b6000819050602082019050919050565b611f77816118c0565b82525050565b6000611f898383611f6e565b60208301905092915050565b6000602082019050919050565b6000611fad82611f42565b611fb78185611f4d565b9350611fc283611f5e565b8060005b83811015611ff3578151611fda8882611f7d565b9750611fe583611f95565b925050600181019050611fc6565b5085935050505092915050565b6000602082019050818103600083015261201a8184611fa2565b905092915050565b61202b816118c0565b82525050565b60006020820190506120466000830184612022565b92915050565b6120558161186a565b82525050565b6000602082019050612070600083018461204c565b92915050565b600080fd5b600080fd5b7f4e487b7100000000000000000000000000000000000000000000000000000000600052604160045260246000fd5b6120b8826119f3565b810181811067ffffffffffffffff821117156120d7576120d6612080565b5b80604052505050565b60006120ea611856565b90506120f682826120af565b919050565b600067ffffffffffffffff82111561211657612115612080565b5b61211f826119f3565b9050602081019050919050565b82818337600083830152505050565b600061214e612149846120fb565b6120e0565b90508281526020810184848401111561216a5761216961207b565b5b61217584828561212c565b509392505050565b600082601f83011261219257612191612076565b5b81356121a284826020860161213b565b91505092915050565b600067ffffffffffffffff8211156121c6576121c5612080565b5b602082029050602081019050919050565b600080fd5b60006121ef6121ea846121ab565b6120e0565b90508083825260208201905060208402830185811115612212576122116121d7565b5b835b8181101561225957803567ffffffffffffffff81111561223757612236612076565b5b808601612244898261217d565b85526020850194505050602081019050612214565b5050509392505050565b600082601f83011261227857612277612076565b5b81356122888482602086016121dc565b91505092915050565b6000806000606084860312156122aa576122a9611860565b5b600084013567ffffffffffffffff8111156122c8576122c7611865565b5b6122d48682870161217d565b935050602084013567ffffffffffffffff8111156122f5576122f4611865565b5b6123018682870161217d565b925050604084013567ffffffffffffffff81111561232257612321611865565b5b61232e86828701612263565b9150509250925092565b600082825260208201905092915050565b600061235482611b4b565b61235e8185612338565b935061236983611b67565b8060005b8381101561239a5781516123818882611b77565b975061238c83611b8f565b92505060018101905061236d565b5085935050505092915050565b600060208201905081810360008301526123c18184612349565b905092915050565b7f506f6c6c20646f6573206e6f7420657869737400000000000000000000000000600082015250565b60006123ff601383611d98565b915061240a826123c9565b602082019050919050565b6000602082019050818103600083015261242e816123f2565b9050919050565b7f4e487b7100000000000000000000000000000000000000000000000000000000600052603260045260246000fd5b7f4f6e6c7920746865206f776e65722063616e20706572666f726d20746869732060008201527f616374696f6e0000000000000000000000000000000000000000000000000000602082015250565b60006124c0602683611d98565b91506124cb82612464565b604082019050919050565b600060208201905081810360008301526124ef816124b3565b9050919050565b7f4e487b7100000000000000000000000000000000000000000000000000000000600052602260045260246000fd5b6000600282049050600182168061253d57607f821691505b6020821081036125505761254f6124f6565b5b50919050565b7f596f7520617265206e6f742077686974656c697374656420746f20766f746500600082015250565b600061258c601f83611d98565b915061259782612556565b602082019050919050565b600060208201905081810360008301526125bb8161257f565b9050919050565b7f54686520706f6c6c206973206e6f74206f70656e000000000000000000000000600082015250565b60006125f8601483611d98565b9150612603826125c2565b602082019050919050565b60006020820190508181036000830152612627816125eb565b9050919050565b7f596f75206861766520616c726561647920766f74656400000000000000000000600082015250565b6000612664601683611d98565b915061266f8261262e565b602082019050919050565b6000602082019050818103600083015261269381612657565b9050919050565b7f496e76616c6964206f7074696f6e204944000000000000000000000000000000600082015250565b60006126d0601183611d98565b91506126db8261269a565b602082019050919050565b600060208201905081810360008301526126ff816126c3565b9050919050565b60008190508160005260206000209050919050565b60006020601f8301049050919050565b600082821b905092915050565b6000600883026127687fffffffffffffffffffffffffffffffffffffffffffffffffffffffffffffffff8261272b565b612772868361272b565b95508019841693508086168417925050509392505050565b6000819050919050565b60006127af6127aa6127a58461186a565b61278a565b61186a565b9050919050565b6000819050919050565b6127c983612794565b6127dd6127d5826127b6565b848454612738565b825550505050565b600090565b6127f26127e5565b6127fd8184846127c0565b505050565b5b81811015612821576128166000826127ea565b600181019050612803565b5050565b601f8211156128665761283781612706565b6128408461271b565b8101602085101561284f578190505b61286361285b8561271b565b830182612802565b50505b505050565b600082821c905092915050565b60006128896000198460080261286b565b1980831691505092915050565b60006128a28383612878565b9150826002028217905092915050565b6128bb826119ad565b67ffffffffffffffff8111156128d4576128d3612080565b5b6128de8254612525565b6128e9828285612825565b600060209050601f83116001811461291c576000841561290a578287015190505b6129148582612896565b86555061297c565b601f19841661292a86612706565b60005b828110156129525784890151825560018201915060208501945060208101905061292d565b8683101561296f578489015161296b601f891682612878565b8355505b6001600288020188555050505b505050505050565b600081905092915050565b600061299a826119ad565b6129a48185612984565b93506129b48185602086016119c9565b80840191505092915050565b6000819050919050565b6129db6129d68261186a565b6129c0565b82525050565b60006129ed828761298f565b91506129f9828661298f565b9150612a05828561298f565b9150612a1182846129ca565b60208201915081905095945050505050565b7f4e487b7100000000000000000000000000000000000000000000000000000000600052601160045260246000fd5b6000612a5d8261186a565b91507fffffffffffffffffffffffffffffffffffffffffffffffffffffffffffffffff8203612a8f57612a8e612a23565b5b60018201905091905056fea264697066735822122097ba1917e0c2474a253be24f2b23748e615a155bf78c4b278f2142d14485dec464736f6c63430008180033",
  "linkReferences": {},
  "deployedLinkReferences": {}
}